:020000040800F2
:100000000010002039010008C5010008C5010008E2
:10001000C5010008C5010008C5010008C5010008A8
:10002000C5010008C5010008C5010008C501000898
:10003000C5010008C5010008C5010008AD0200089F
:10004000C5010008C5010008C5010008C501000878
:10005000C5010008C5010008C5010008C501000868
:10006000C5010008C5010008C5010008C501000858
:10007000C5010008C5010008C5010008C501000848
:10008000C5010008C5010008C5010008C501000838
:10009000C5010008C5010008C5010008C501000828
:1000A000C5010008C5010008C5010008C501000818
:1000B00005070008C5010008C5010008C5010008C2
:1000C00080B500AFC046BD4680BD80B582B000AFF0
:1000D000154A164BD31A9B103B6000237B607A684D
:1000E0003B689A4208D2114B7A689200D3589847DD
:1000F0007B6801337B60F2E70D4A0E4BD31A9B10ED
:100100003B6000237B607A683B689A4208D2094BC7
:100110007A689200D35898477B6801337B60F2E796
:10012000C046BD4602B080BD7809000878090008C5
:100130007C0900087809000880B584B000AFFFF79B
:10014000BFFF1B4BFB601B4BBB601B4A194BD31AF9
:100150007B607B685A1E7A605A1E9341DBB2002B8B
:1001600009D0FB685A1CFA601978BB685A1CBA603F
:100170000A1C1A70EDE7114BBB60114A0F4BD31AE2
:100180007B607B685A1E7A605A1E9341DBB2002B5B
:1001900005D0BB685A1CBA6000221A70F1E7FFF75D
:1001A00094FF00F0C1F8C046BD4604B080BDC04613
:1001B000E60A0008000000200000002000000020E7
:1001C0002001002080B500AFFEE7C04680B582B0B8
:1001D00000AF78607B685A1E7A605A1E9341DBB28A
:1001E000002B00D0F6E7C046BD4602B080BD80B50A
:1001F00000AF1F4B1A681E4B1E490A401A601E4B67
:100200001A681D4B02210A431A60194BC02292053D
:10021000DA60174BDA68164B18490A43DA60144B58
:10022000DA68134B02210A43DA60114BDA68104B8B
:10023000802149020A43DA600D4B1A680C4B802179
:1002400049040A431A600A4B1A6880239B0413402E
:100250005A425341DBB2002B00D0F4E7044B9A68BA
:10026000034B02210A439A60C046BD4680BDC0468A
:1002700000100240FFFFFFFE0020024010100000AF
:1002800080B500AF074B1A68064B07210A431A6076
:10029000044B054A5A60034B05229A6062B6C04679
:1002A000BD4680BD10E000E0FFF9000080B500AF62
:1002B0000B4B1B685A1C0A4B1A60094B1B68094AF6
:1002C00093420AD9064B00221A60A023DB055A6923
:1002D000A023DB0501214A405A61C046BD4680BDCE
:1002E00000000020E703000080B500AFFFF77FFFAC
:1002F0000C4B5A6B0B4B01210A435A63A023DB05BD
:100300001A68A023DB0502218A431A60A023DB05BB
:100310001A68A023DB0501210A431A60C046BD46C6
:1003200080BDC0460010024090B583B000AF1A4BAC
:100330001800FFF74BFFFFF7D7FFFFF7A1FF174BA1
:10034000180000F057F862B6154A144B1100180057
:1003500000F06AF9FC1D114B180000F001F90300D0
:100360002370FB1D1B785A1E9341DBB2002BF1D08A
:100370000C4A0A4B1100180000F056F9FB1D1A78C0
:10038000064B1100180000F03DF9074A034B11001D
:10039000180000F049F9DDE740420F00040000209A
:1003A0007C090008900900089C09000880B582B00B
:1003B00000AF786039607B68012B07D13B68054A44
:1003C000934203D1044B180000F084FBC046BD46A5
:1003D00002B080BDFFFF00000400002080B500AF28
:1003E000034B19000120FFF7E1FFBD4680BDC04669
:1003F000FFFF000080B584B000AF786096239B01BA
:10040000FB603C4B7A681A6072B67B6894220021CC
:10041000995000237A68902153507A688C21535068
:100420007B6800229A6000227B685A607B681A60B1
:10043000314B5A6B304B01210A435A632E4BDA6B16
:100440002D4B802189020A43DA63A023DB051A6859
:10045000A023DB05A0210A431A60A023DB051A684C
:10046000A023DB0550218A431A60A023DB051A6A0A
:10047000A023DB0521490A401A62A023DB051A6A82
:10048000A023DB05882149010A431A621C4BBB608B
:10049000F968B86800F084F90300BB60164BDA6AAB
:1004A000154B18490A40DA62174B00221A60164BA6
:1004B00000225A60144B00229A60134BBA68DA602B
:1004C000114B012252421A620F4B6C221A600E4BE2
:1004D0001A680D4B01210A431A600C4B1A680B4B2A
:1004E000802149050A431A6062B6C046BD4604B081
:1004F00080BDC0461C01002000100240FF00FFFF2D
:100500000090D003FFFFFDFF0044004000E100E049
:1005100080B582B000AF78600A00FB1C1A700F4BE8
:100520001B68082213405A425341DBB2002B0AD009
:100530000A4B1A68094B08210A431A60074BFA1C38
:1005400012789A6206E07968FB1C1A787B681800BA
:1005500000F082F8C046BD4602B080BD00440040B5
:1005600080B582B000AF78607B688C331A007B68FE
:100570001100180000F09AF803001800BD4602B000
:1005800080BD80B586B000AF786039600A237B619A
:1005900008217B180022DA723B68002B06DA7B18F0
:1005A0002D221A703B685B423B6003E00823FB1876
:1005B0002B221A707B69002B19DD3B680A21180079
:1005C00000F0D4F90B00DBB23033D9B20823FA18AB
:1005D0007B69D3180A1C1A703B680A21180000F0C6
:1005E000DFF803003B607B69013B7B61E2E70823A6
:1005F000FA187B681100180000F016F8C046BD46D6
:1006000006B080BD80B582B000AF78600A00FB1CE8
:100610001A70FB1C1A787B6811001800FFF778FF2E
:10062000C046BD4602B080BD80B582B000AF7860E4
:1006300039603B681B78002B0AD03B681A787B68CE
:1006400011001800FFF764FF3B6801333B60F0E7DF
:10065000C046BD4602B080BD80B584B000AFF86032
:10066000B960FB1D1A70BB689A687F210023914214
:100670005B41DBB2002B15D072B6BB689B685A1C7D
:10068000BB689A60FB1D1978BB681B68BA68D318F1
:100690000A1C1A73BB681B6801337F221A40BB68AF
:1006A0001A6062B6C046BD4604B080BD80B584B055
:1006B00000AF786039600F217B1800221A703B6808
:1006C0009B685A1E9341DBB2002B14D072B63B6874
:1006D0009B685A1E3B689A603B685A687B18396869
:1006E0008A18127B1A703B685B6801337F221A40BC
:1006F0003B685A6062B60F23FB181B781800BD4692
:1007000004B080BD80B500AF234BDB69802213406D
:100710005A1E9341DBB2002B20D01F4B1A6A1E4B8E
:1007200060210A431A621D4B1B689B685A1E934145
:10073000DBB2002B0CD0194B1A68184B1B68190040
:100740001000FFF7B3FF03001A00134B9A6205E095
:10075000114B1A68104B08218A431A600E4BDB6953
:10076000202213405A1E9341DBB2002B11D00B4BB9
:1007700018680A4B1B688C331900074B5B6ADBB2A5
:100780001A00FFF769FF044B1A6A034B20210A4342
:100790001A62C046BD4680BD004400401C010020D6
:1007A00003460B437FD4002243088B4274D30309D2
:1007B0008B425FD3030A8B4244D3030B8B4228D373
:1007C000030C8B420DD3FF22090212BA030C8B4299
:1007D00002D31212090265D0030B8B4219D300E039
:1007E000090AC30B8B4201D3CB03C01A5241830BBE
:1007F0008B4201D38B03C01A5241430B8B4201D36E
:100800004B03C01A5241030B8B4201D30B03C01A96
:100810005241C30A8B4201D3CB02C01A5241830A10
:100820008B4201D38B02C01A5241430A8B4201D33F
:100830004B02C01A5241030A8B4201D30B02C01A69
:100840005241CDD2C3098B4201D3CB01C01A5241D0
:1008500083098B4201D38B01C01A524143098B4259
:1008600001D34B01C01A524103098B4201D30B0142
:10087000C01A5241C3088B4201D3CB00C01A524167
:1008800083088B4201D38B00C01A524143088B422C
:1008900001D34B00C01A5241411A00D201465241C5
:1008A000104670475DE0CA0F00D04942031000D3E4
:1008B0004042534000229C4603098B422DD3030A39
:1008C0008B4212D3FC22890112BA030A8B420CD349
:1008D000890192118B4208D3890192118B4204D372
:1008E00089013AD0921100E08909C3098B4201D3F2
:1008F000CB01C01A524183098B4201D38B01C01A2C
:10090000524143098B4201D34B01C01A52410309A2
:100910008B4201D30B01C01A5241C3088B4201D351
:10092000CB00C01A524183088B4201D38B00C01AFE
:100930005241D9D243088B4201D34B00C01A5241D5
:10094000411A00D20146634652415B10104601D362
:100950004042002B00D54942704763465B1000D3EC
:10096000404201B5002000F005F802BD0029F8D092
:1009700016E770477047C046DD030008547970657C
:1009800020736F6D657468696E670D0A0000000062
:10099000596F752074797065643A20000D0A00471C
:1009A00043433A2028474E5520546F6F6C7320669E
:1009B0006F722041726D20456D62656464656420CC
:1009C00050726F636573736F727320382D323031DC
:1009D000382D71342D6D616A6F722920382E322EB8
:1009E00031203230313831323133202872656C6534
:1009F00061736529205B6763632D382D6272616EB8
:100A00006368207265766973696F6E20323637309D
:100A100037345D00412B00000061656162690001AF
:100A2000210000000536532D4D00060C074D09012D
:100A30001204140115011703180119011A011E06E9
:100A4000412B000000616561626900012100000026
:100A50000536532D4D00060C074D090112041401F3
:100A600015011703180119011A011E06412B000078
:100A70000061656162690001210000000536532DA7
:100A80004D00060C074D090112041401150117034E
:100A9000180119011A011E06411D0000006165615F
:100AA00062690001130000000536532D4D00060C4D
:100AB000074D09011901411D00000061656162696E
:100AC0000001130000000536532D4D00060C074DA4
:040AD00009011901FE
:100AD40080B582B000AF78607B681800BD4602B074
:020AE40080BDD3
:0400000508000000EF
:00000001FF
