:020000040800F2
:1000000000100020191A0008A51A0008A51A0008F7
:10001000A51A0008A51A0008A51A0008A51A0008C4
:10002000A51A0008A51A0008A51A0008A51A0008B4
:10003000A51A0008A51A0008A51A00088D1B0008BB
:10004000A51A0008A51A0008A51A0008A51A000894
:10005000A51A0008A51A0008A51A0008A51A000884
:10006000A51A0008A51A0008A51A0008A51A000874
:10007000A51A0008A51A0008A51A0008A51A000864
:10008000A51A0008A51A0008A51A0008A51A000854
:10009000A51A0008A51A0008A51A00084D1700089F
:1000A000A51A0008A51A0008A51A0008A51A000834
:1000B000B1240008A51A0008A51A0008A51A00080E
:1000C00080B582B000AF786039607B683A68DA61E9
:1000D0007B68180000F075F9C046BD4602B080BDCF
:1000E000F0B589B000AF78607B68180000F0BEF80A
:1000F0000F243A197B68F721180000F024F90E2527
:100100007A197B68F821180000F01DF90D26BA193C
:100110007B68F921180000F016F93B191B781A04C6
:100120007B191B781B02D318BA1912789B181B096C
:10013000BB617B681B685B104A4A944663447B61E1
:100140007B699B107A6992105343DB127A68142101
:10015000525E53433B617B6812229B5E1A007B69AF
:1001600053435B003A69D3183B613B699A107B6843
:1001700010215B5E1B04D3183B617B680E229B5EE3
:1001800019007B699B107A69921053435B134B43B0
:10019000DA107B680C215B5E19007B694B435B10B6
:1001A000D3189B147B617B698022120294466344BE
:1001B0007A6852895343DB137B6100237B617B693F
:1001C0005A1E9341DBB2002B01D0002345E03B696E
:1001D0001B131A00BB69D21813005B019B1A9B000A
:1001E0009B189A009B189A009B185B421E4A9446E3
:1001F0006344FB61FB69002B09DBFB695B007A69E7
:100200001100180002F00AFB0300FB6107E07B69A4
:100210001900F86902F002FB03005B00FB617B68D8
:100220001A229B5E1A00FB691B0C53431B137B6154
:10023000FB699B081A007B6818215B5E53435B13C4
:100240003B617A693B69D3187A681621525E9B1824
:100250001A11FB69D318FB61FB691800BD4609B090
:10026000F0BDC0460006FFFF000050C3F0B589B0E6
:1002700000AF78607B682E22F421180000F07EF831
:100280000F23FB1808221A700F217B181B781A0005
:100290000823134006D07A187B68F321180000F079
:1002A00052F8F1E70E243A197B68FA21180000F0A1
:1002B0004AF80D257A197B68FB21180000F043F8F5
:1002C0000C26BA197B68FC21180000F03CF83B1999
:1002D0001B781A047B191B781B02D318BA191278E1
:1002E0009B181B11FB61FB69DA107B689B885B0024
:1002F000D31A7A680621525E5343DB12BB61FB6955
:100300001B117A6892889B1AFA6912117968898898
:10031000521A53431B137A680821525E53439B13AE
:100320007B61BA697B69D2187B681A607B681A683E
:1003300013009B009B1880331B123B613B69180024
:10034000BD4609B0F0BD90B589B002AFF8607A60E3
:100350000B243B190A1C1A70FB68D86979683B1991
:100360001A78012300930B00762101F08EF9030027
:100370007B617B691800BD4607B090BD80B586B033
:1003800002AF786008001100FB1C021C1A70BB1C35
:100390000A1C1A700C217B18BA1C12781A707B6820
:1003A000D8697918FB1C1A78012300930B00762179
:1003B00001F022F90300BB60BB681800BD4604B021
:1003C00080BD80B58AB000AF786000237B627B6A15
:1003D000192B0FDC7B6ADBB2783BD9B20823FA1801
:1003E0007B6AD2187B681800FFF7ADFF7B6A013388
:1003F0007B62ECE708217B185B789BB21B029AB208
:100400007B181B789BB2D3189AB27B689A807B18B2
:10041000DB789BB21B029AB27B189B789BB2D318F5
:100420009BB21AB27B68DA807B185B799BB21B02A5
:100430009AB27B181B799BB2D3189BB21AB27B6815
:100440001A817B18DB799BB21B029AB27B189B79CD
:100450009BB2D3189AB27B685A817B185B7A9BB2A5
:100460001B029AB27B181B7A9BB2D3189BB21AB2AA
:100470007B689A817B18DB7A9BB21B029AB27B184D
:100480009B7A9BB2D3189BB21AB27B68DA817B1835
:100490005B7B9BB21B029AB27B181B7B9BB2D3186F
:1004A0009BB21AB27B681A827B18DB7B9BB21B0261
:1004B0009AB27B189B7B9BB2D3189BB21AB27B6813
:1004C0005A827B185B7C9BB21B029AB27B181B7C06
:1004D0009BB2D3189BB21AB27B689A827B18DB7CE2
:1004E0009BB21B029AB27B189B7C9BB2D3189BB227
:1004F0001AB27B68DA827B185B7D9BB21B029AB2D0
:100500007B181B7D9BB2D3189BB21AB27B681A83EF
:100510007B18DB7D9BB21B029AB27B189B7D9BB242
:10052000D3189BB21AB27B685A83C046BD460AB044
:1005300080BDC04680B584B002AF786039607B680A
:100540003A681A6002F002F8524B5A6B514B012183
:100550000A435A63A023DB051A68A023DB05802128
:1005600049010A431A60A023DB051A68A023DB05B2
:1005700049490A401A60A023DB051A68A023DB055D
:10058000802149000A431A60A023DB051A68A023D2
:10059000DB0542490A401A607B68180000F017FA30
:1005A0007B681921180000F05EFA7B68180000F0E3
:1005B000FEF97B681921180000F055FA7B681800D5
:1005C00000F005FA7B681921180000F04CFA7B68EE
:1005D0000121180000F00BFA7B689621180000F04A
:1005E00042FA7B681121180000F001FA7B6819219A
:1005F000180000F038FA7B683A21180000F0F7F98B
:100600007B685521180000F006FA7B681921180054
:1006100000F029FA7B683621180000F0E8F97B68C1
:100620000821180000F0F7F97B681921180000F084
:100630001AFA7B685121180000F0D9F97B6819215A
:10064000180000F010FA7B682121180000F0CFF9A3
:100650007B681321180000F0CAF97B682921180073
:1006600000F0C5F97B681921180000F0FCF97B68DF
:100670002C21180000F0BBF9786800230193F023C7
:100680000093F0230022002100F0A2F8C046BD46EE
:1006900002B080BD00100240FFDFFFFFFFFDFFFF43
:1006A000B0B586B002AFF8600C00100019000A2542
:1006B0007B19221C1A8008243B19021C1A80BB1DBE
:1006C0000A1C1A8029007B181B8801339DB23B1934
:1006D0001B8801339BB23A1914887A181188F8687C
:1006E00000932B00220000F0D8F8BB1D1A88FB688D
:1006F0001100180000F0A3F9C046BD4604B0B0BD1B
:10070000F0B589B002AFF8600C00100019000A259E
:100710007B19221C1A8008243B19021C1A80BB1D5D
:100720000A1C1A8028003A18BB1D12881B88D3188F
:100730009BB2013B9DB23B192822082179188918E8
:100740001A880B88D3189BB2013B9BB226003A193A
:1007500014883A181188F86800932B00220000F0E2
:100760009CF8BB1900221A8008231900FB182822C4
:10077000791889181A880B889A4225D20A23FB18FF
:1007800000221A800A243A19BB1D12881B889A423B
:1007900013D27B6B9A1C7A6316217A181B881380FC
:1007A0007B181A88FB681100180000F048F93B1903
:1007B0001A883B1901321A80E4E708217B181A884D
:1007C0007B1801321A80CFE7C046BD4607B0F0BDA6
:1007D000F0B587B002AFF8600C00100019000A25D0
:1007E0007B19221C1A8008243B19021C1A80BB1D8D
:1007F0000A1C1A8028003A18BB1D12881B88D318BF
:100800009BB2013B9DB23B1920220821791889181F
:100810001A880B88D3189BB2013B9BB226003A1969
:1008200014883A181188F86800932B00220000F011
:1008300034F8BB1900221A8008231900FB18202263
:10084000791889181A880B889A4222D20A23FB1831
:1008500000221A800A243A19BB1D12881B889A426A
:1008600010D2242308229446BC4463441A88FB68AF
:100870001100180000F0E3F83B191A883B19013207
:100880001A80E7E708217B181A887B1801321A8042
:10089000D2E7C046BD4605B0F0BDB0B584B000AFEC
:1008A000F8600C00100019000A257B19221C1A8020
:1008B00008243B19021C1A80BB1D0A1C1A80FB6805
:1008C0002A21180000F093F87B191B881B12DAB25A
:1008D000FB681100180000F09EF87B191B88DAB243
:1008E000FB681100180000F096F8BB1D1B881B1256
:1008F000DAB2FB681100180000F08DF8BB1D1B88F0
:10090000DAB2FB681100180000F085F8FB682B21B3
:10091000180000F06CF83B191B881B12DAB2FB6858
:100920001100180000F077F83B191B88DAB2FB6859
:100930001100180000F06FF820243B191B881B12CF
:10094000DAB2FB681100180000F065F83B191B884B
:10095000DAB2FB681100180000F05DF8FB682C218A
:10096000180000F044F8C046BD4604B0B0BD80B5E4
:1009700082B000AF7860A023DB055A69A023DB05B5
:1009800010218A435A61C046BD4602B080BD80B581
:1009900082B000AF7860A023DB055A69A023DB0595
:1009A00010210A435A61C046BD4602B080BD80B5E1
:1009B00082B000AF7860A023DB055A69A023DB0575
:1009C00040218A435A61C046BD4602B080BD80B511
:1009D00082B000AF7860A023DB055A69A023DB0555
:1009E00040210A435A61C046BD4602B080BD80B571
:1009F00082B000AF78600A00FB1C1A707B68180098
:100A0000FFF7B5FFFB1C1B78180001F0F9FDC0468D
:100A1000BD4602B080BD80B582B000AF78600A00EC
:100A2000FB1C1A707B681800FFF7B1FFFB1C1B78DA
:100A3000180001F0E5FDC046BD4602B080BD80B59E
:100A400082B000AF78600A00BB1C1A807B68180077
:100A5000FFF79DFFBB1C1B88180001F013FEC0466A
:100A6000BD4602B080BD80B584B000AF786039600B
:100A70007B681B681B683A68D318FB607B681B683F
:100A80001A68FB689A429B415B42DBB2002B01D0A3
:100A900030BFF3E7C046BD4604B080BDF0B5C646E2
:100AA00000B586B002AFF8600C00100019000A25EE
:100AB0007B19221C1A800826BB19021C1A80BB1D38
:100AC0000A1C1A807A19BB1D12881B88D3189CB285
:100AD000BB191B8898467B191988F86824230822BB
:100AE0009446BC4463441B880193BB191B88009344
:100AF0002300424600F054FB3000BB19202108229D
:100B00009446BC4461441A880B88D3189BB298461B
:100B10002E00BA1915883A181488BA191188F8687D
:100B2000242208239C46BC44624412880192434616
:100B300000932B00220000F033FBBA19BB1D128872
:100B40001B88D31899B2BA19BB1D12881B88D318F9
:100B50009DB208243B19202008229446BC446044DE
:100B60001A880388D3189BB298463A191488F868F3
:100B7000242208239C46BC446244128801924346C6
:100B800000932B00220000F00BFB08203B182021D3
:100B900008229446BC4461441A880B88D3189CB23E
:100BA000BA19BB1D12881B88D3189DB23B1820218F
:100BB00008229446BC4461441A880B88D3189BB21F
:100BC000BA191188F86824220826B446BC44624445
:100BD0001288019200932B00220000F0E1FAC04637
:100BE000BD4604B004BC9046F0BDF0B58BB000AF7C
:100BF000F8600C00100019000A257B19221C1A80CD
:100C000008243B19021C1A80BB1D0A1C1A80BB1D3C
:100C10001B88013B7B6200233B620123FB610123B4
:100C2000BB61BB1D1B885B00FA69D31A7B61BA1DCF
:100C30007B1912881B889A4200D9D6E0BA1D3B194D
:100C400012881B889A4200D9D1E07B191A88BB1DF3
:100C50001B88D318F02B00DDCBE03B191A88BB1D95
:100C60001B88D318F02B00DDC5E07A6A3B6A9A42F4
:100C700000DAC1E07B6A9AB20A243B191B88D318B8
:100C800099B23B6A9AB208257B191B88D3189AB28D
:100C900038260823F81883191B88F868FFF700FD29
:100CA0003B6A9AB23B191B88D31899B27B6A9AB2F5
:100CB0007B191B88D3189AB20823F81883191B884C
:100CC000F868FFF7EDFC3B6A9BB23A191288D31A19
:100CD00099B27B6A9AB27B191B88D3189AB20823FF
:100CE000F81883191B88F868FFF7DAFC7B6A9BB257
:100CF0003A191288D31A99B23B6A9AB27B191B88A7
:100D0000D3189AB20823F81883191B88F868FFF7DC
:100D1000C7FC7B6A9BB23A191288D31A99B23B6A14
:100D20009BB27A191288D31A9AB20823F818831939
:100D30001B88F868FFF7B4FC3B6A9BB23A1912882B
:100D4000D31A99B27B6A9BB27A191288D31A9AB2D3
:100D50000823F81883191B88F868FFF7A1FC3B6A81
:100D60009AB23B191B88D31899B27B6A9BB27A1945
:100D70001288D31A9AB20823F81883191B88F868C6
:100D8000FFF78EFC7B6A9AB23B191B88D31899B285
:100D90003B6A9BB27A191288D31A9AB20823FB18BD
:100DA0009B191B88F868FFF77BFC7B69002B09DC2B
:100DB0003B6A01333B627A69BB69D3187B61BB69CB
:100DC0000233BB617B69002B00DC4EE77B6A013B91
:100DD0007B62FB690233FB61BB1D1B885B00FA6908
:100DE000D31A7A69D3187B613FE7C04604E0C04656
:100DF00002E0C04600E0C046BD460BB0F0BDF0B515
:100E0000C64600B58CB002AFF8600C0010001900A7
:100E10000A257B19221C1A8008243B19021C1A80FF
:100E2000BB1D0A1C1A80BB1D1B88013B7B62002373
:100E30003B620123FB610123BB61BB1D1B885B007F
:100E4000FA69D31A7B61BA1D7B1912881B889A42F2
:100E500000D9DAE0BA1D3B1912881B889A4200D9E2
:100E6000D5E07B191A88BB1D1B88D318F02B00DD39
:100E7000CFE03B191A88BB1D1B88D318F02B00DD6F
:100E8000C9E07A6A3B6A9A4200DAC5E07B6A9BB2A3
:100E90000A26BA191288D31A99B23B6A9AB2082064
:100EA0003B181B88D3189CB27B6A9AB2BB191B886B
:100EB000D3189DB23B6A9AB23B181B88D3189BB2D9
:100EC0009846F868382208239C46BC44624412883D
:100ED0000192434600932B00220000F061F93B6A27
:100EE0009BB2BA191288D31A99B27B6A9AB20820B7
:100EF0003B181B88D3189CB23B6A9AB2BB191B885B
:100F0000D3189DB27B6A9AB23B181B88D3189BB248
:100F10009846F868382208239C46BC4462441288EC
:100F20000192434600932B00220000F039F97B6ABE
:100F30009BB2BA191288D31A99B23B6A9BB20820A5
:100F40003A181288D31A9CB27B6A9AB2BB191B88D2
:100F5000D3189DB23B6A9BB23A181288D31A9BB23F
:100F60009846F868382208239C46BC44624412889C
:100F70000192434600932B00220000F011F93B6AD6
:100F80009BB2BA191288D31A99B27B6A9BB2082015
:100F90003A181288D31A9CB23B6A9AB2BB191B88C2
:100FA000D3189DB27B6A9BB23A181288D31A9BB2AF
:100FB000F86838220826B446BC446244128801927C
:100FC00000932B00220000F0EBF87B69002B09DC7A
:100FD0003B6A01333B627A69BB69D3187B61BB69A9
:100FE0000233BB617B69002B00DC4AE77B6A013B73
:100FF0007B62FB690233FB61BB1D1B885B00FA69E6
:10100000D31A7A69D3187B613BE7C04604E0C04637
:1010100002E0C04600E0C046BD460AB004BC9046AF
:10102000F0BDB0B58AB000AFF8600C001000190038
:101030000A257B19221C1A8008243B19021C1A80DD
:10104000BB1D0A1C1A80BB1D1A887B191B88D31A6A
:101050003B613823FB181A883B191B88D31A7B6223
:1010600001233B627B6A002B05DA01235B423B6272
:101070007B6A5B427B627B6A5A003B69D31AFB61E5
:101080000823FB181B88BB610A23FB181B887B61A4
:10109000BB1D1B887A699A421EDC7B6999B2BB69C9
:1010A0009AB23C23FB181B88F868FFF7F9FAFB6932
:1010B000002B08DDBA693B6AD318BB613B695B0052
:1010C000FA69D31AFB617B6A5B00FA69D318FB618A
:1010D0007B6901337B61DBE7C046BD460AB0B0BD2A
:1010E000B0B58AB000AFF8600C00100019000A25F6
:1010F0007B19221C1A8008243B19021C1A80BB1D74
:101100000A1C1A80BB1D1A887B191B88D31A7B62A4
:101110003823FB181A883B191B88D31A3B6101231B
:101120003B627B6A002B05DA01235B423B627B6AF0
:101130005B427B627B6A5A003B69D31AFB610A23DC
:10114000FB181B88BB610823FB181B887B613823B5
:10115000FB181B887A699A421EDCBB6999B27B69CD
:101160009AB23C23FB181B88F868FFF799FAFB69D1
:10117000002B08DDBA693B6AD318BB613B695B0091
:10118000FA69D31AFB617B6A5B00FA69D318FB61C9
:101190007B6901337B61DAE7C046BD460AB0B0BD6A
:1011A000B0B586B002AFF8600C00100019000A2537
:1011B0007B19221C1A8008243B19021C1A80BB1DB3
:1011C0000A1C1A802023FB181A883B191B88D21A84
:1011D000FB681100180001F0F3FE0400BB1D1A8823
:1011E0007B191B88D21AFB681100180001F0E8FE79
:1011F000030001229C4201DB00231A1CD3B2002B06
:101200002FD00A217A18BB1D12881B889A4213D945
:101210007B181C882023FB181A88BB1D1988F868C6
:101220002423FB181B8801930823FB181B880093B9
:101230002300FFF7F6FE43E0BB1D1C880823FB18C4
:101240001A880A23FB181988F8682423FB181B88BE
:1012500001932023FB181B8800932300FFF7E1FE76
:101260002EE008257B19202039181A880B889A420D
:1012700012D90A23FB181C883B181A88BB1D198831
:10128000F8682423FB181B8801937B191B880093A3
:101290002300FFF725FF13E0BB1D1C880823FB1864
:1012A0001A880A23FB181988F8682423FB181B885E
:1012B00001932023FB181B8800932300FFF710FFE6
:1012C000C046BD4604B0B0BD80B59AB002AFF8606C
:1012D000B9601900BB1D1A803B1D0A1C1A805F23D0
:1012E000FB1800221A700023BB655F217B181B7856
:1012F000BA68D3181B78002B00D174E07B181B78D8
:10130000BA68D3181B78203B1A0013009B009A1868
:10131000374BD318BB655D23FB1800221A705D2381
:10132000FB181B78042B45D85E23FB1800221A708B
:101330005E217B181B78062B35D85D203B181B7867
:10134000BA6DD3181B781A007B181B781A4113004A
:10135000012213400FD07B181A7813009B009A18B3
:101360003B181B78D2181023FB18520068217918FB
:101370000988D15210E05E23FB181A7813009B00F5
:101380009A185D23FB181B78D2181023FB18520003
:101390006C2179180988D1525E217B181A787B1844
:1013A00001321A70C4E75D217B181A787B1801326C
:1013B0001A70B4E73B1D1A88BB1D1988F868102302
:1013C000FB180193072300930523FFF799F9BB1D31
:1013D000BA1D128807321A805F217B181A787B1891
:1013E00001321A7081E7C046BD4618B080BDC046C4
:1013F0000C2B0008F0B589B002AFF8600C001000AB
:1014000019000A257B19221C1A800823FB18021CCC
:101410001A80BB1D0A1C1A801026BB1900225A71A3
:101420002C003B191B880A21180001F07DFA0B00E3
:101430009BB2DBB23033DAB2BB191A7125007C19CA
:101440007B191B880A21180001F0E8F903002380AA
:101450002C003B191B880A21180001F065FA0B00CB
:101460009BB2DBB23033DAB2BB19DA7025007C19DB
:101470007B191B880A21180001F0D0F90300238092
:101480002C003B191B880A21180001F04DFA0B00B3
:101490009BB2DBB23033DAB2BB199A7025007C19EB
:1014A0007B191B880A21180001F0B8F9030023807A
:1014B0002C003B191B880A21180001F035FA0B009B
:1014C0009BB2DBB23033DAB2BB195A7025007C19FB
:1014D0007B191B880A21180001F0A0F90300238062
:1014E0007B191B880A21180001F01EFA0B009BB221
:1014F000DBB23033DAB2BB191A70BB1D1C8808236B
:10150000FB181A88B919F8682C230825AC46BC4486
:1015100063441B88019328230825AC46BC446344DC
:101520001B8800932300FFF7CFFEC046BD4607B0DF
:10153000F0BDC04680B582B000AF7860254B7A68B8
:101540001A60254B5A6B244B01210A435A63224BE4
:10155000DA6B214B802189030A43DA63A023DB0580
:101560001A68A023DB051D490A401A60A023DB0589
:101570001A68A023DB05A02189030A431A60A0236F
:10158000DB055A6AA023DB0515490A405A62A023ED
:10159000DB055A6AA023DB05CC21C9000A435A6245
:1015A0000D4BDA6A0C4B0F490A40DA620E4B0F4AB8
:1015B0001A610F4B1A680E4B802109040A431A6006
:1015C000094B0C4ADA61084B46221A60C046BD46F8
:1015D00002B080BD0000002000100240FFFFEBFFC2
:1015E0000FF0FFFFFFFFDFFF00540040989822102C
:1015F00000E100E0383F000090B587B000AFF86030
:10160000080011007B600B243B19021C1A700A2091
:101610003B180A1C1A70FB6877221A70FB683A198B
:1016200012785A70202308229446BC4463441B78E5
:1016300001331A00FB68DA60FB683A1812781A77EF
:10164000FB6800221A6100237B6120230822944654
:10165000BC4463441B787A699A420DDA7B697A68E4
:10166000D2187B6901331178FA68D3180A1C1A77EB
:101670007B6901337B61E8E7FB68180000F016F92D
:1016800003001800BD4607B090BD90B587B000AF0D
:10169000F860080011007B600B243B19021C1A70D3
:1016A0000A203B180A1C1A70FB6872221A70FB6829
:1016B0003A1912785A70FB680122DA60FB683A180E
:1016C00012781A77BA6AFB681A61FB68180000F092
:1016D000EDF800237B617A69BB6A9A420DDA7B6977
:1016E0007A68D318F9689E207A698A1812181278D5
:1016F0001A707B6901337B61EDE700231800BD465A
:1017000007B090BD80B582B000AF7860054B5A68D5
:10171000044B802189010A435A60C046BD4602B08D
:1017200080BDC0460054004080B582B000AF7860F4
:10173000054B5A68044B8021C9010A435A60C046D0
:10174000BD4602B080BDC0460054004090B583B095
:1017500000AF524B9A69524B1A60514B1B680222E0
:10176000134015D04F4B1A684E4B1B685B68D3185B
:101770001A7F4A4B9A624B4B1B685A68494B1B684D
:10178000DB689A4204D2474B1B685A6801325A60A0
:10179000434B1B680422134027D0404B5B6ADCB2EA
:1017A000404B19683F4B1B689A68501C98609E20FC
:1017B0008B181B18221C1A703A4B1B689A68394BFD
:1017C0001B681B699A4210D3364B1B6800229A6033
:1017D000344B1B681800FFF7A7FF324B1B6802222F
:1017E0005A61304B1B6801229A612D4B1B684022C5
:1017F00013402ED02B4B1B681B78772B0DD1294B18
:101800001B6801225A61274B1B681800FFF78CFFE9
:10181000244B1B6801229A611BE0204B5B68224A23
:1018200013407B601F4B1B681B691A04FF231B04BA
:1018300013407A6813437B607B688022D200134395
:101840007B60164B7A685A60164B1B681800FFF7CE
:1018500059FF134B1B68802213400CD0114B1B689F
:1018600002225A610F4B1B681800FFF75DFF0D4BFA
:101870001B6801229A610A4B1A68F0231B0113406E
:1018800008D0084B1B68012252425A61054B1B6865
:1018900001229A61C046BD4603B090BD005400408D
:1018A0000400002000000020FFFF00FF80B584B08E
:1018B00000AF7860344BFB60344B1A68334B012126
:1018C0008A431A607B6800225A607B6800229A6013
:1018D0007B6800225A617B6800229A612B4B5B680F
:1018E0002B4A1340BB607B68DB681A04FF231B0490
:1018F0001340BA681343BB60BB68FF229343BB60CD
:101900007B685B785B001A00FF231340BA681343BF
:10191000BB60BB681F4A1340BB607B681B782022FA
:101920001343DAB27B681A70BB681B4A1340BB6072
:10193000BB681A4A1340BB60144BBA685A60134B19
:101940001A68124B01210A431A607B681800FFF7DE
:10195000D9FE7B689B69002B06D1FB685A1EFA6092
:10196000002B01D0012300E00023002B00D0F0E782
:10197000FB68002B02DC01235B4201E07B685B69B2
:101980001800BD4604B080BDFFFF0F0000540040AA
:10199000FFFF00FFFFF7FFFFFFFBFFFFFFFFFFFD64
:1019A00080B500AFC046BD4680BD80B582B000AFF7
:1019B000154A164BD31A9B103B6000237B607A6854
:1019C0003B689A4208D2114B7A689200D3589847E4
:1019D0007B6801337B60F2E70D4A0E4BD31A9B10F4
:1019E0003B6000237B607A683B689A4208D2094BCF
:1019F0007A689200D35898477B6801337B60F2E79E
:101A0000C046BD4602B080BD082B0008082B000868
:101A10000C2B0008082B000880B584B000AFFFF73E
:101A2000BFFF1B4BFB601B4BBB601B4A194BD31A00
:101A30007B607B685A1E7A605A1E9341DBB2002B92
:101A400009D0FB685A1CFA601978BB685A1CBA6046
:101A50000A1C1A70EDE7114BBB60114A0F4BD31AE9
:101A60007B607B685A1E7A605A1E9341DBB2002B62
:101A700005D0BB685A1CBA6000221A70F1E7FFF764
:101A800094FF00F015F9C046BD4604B080BDC046C5
:101A90003A30000800000020000000200000002074
:101AA0008002002080B500AFFEE7C04680B582B05E
:101AB00000AF78607B685A1E7A605A1E9341DBB291
:101AC000002B00D0F6E7C046BD4602B080BD80B511
:101AD00000AF1F4B1A681E4B1E490A401A601E4B6E
:101AE0001A681D4B02210A431A60194BC022920545
:101AF000DA60174BDA68164B18490A43DA60144B60
:101B0000DA68134B02210A43DA60114BDA68104B92
:101B1000802149020A43DA600D4B1A680C4B802180
:101B200049040A431A600A4B1A6880239B04134035
:101B30005A425341DBB2002B00D0F4E7044B9A68C1
:101B4000034B02210A439A60C046BD4680BDC04691
:101B500000100240FFFFFFFE0020024010100000B6
:101B600080B500AF074B1A68064B07210A431A607D
:101B7000044B054A5A60034B05229A6062B6C04680
:101B8000BD4680BD10E000E0FFF9000080B500AF69
:101B9000284B1B685A1C274B1A60274B1A69802355
:101BA0005B0013405A1E9341DBB2002B08D0A023E8
:101BB000DB055A69A023DB0501218A435A610CE049
:101BC000A023DB055A69A023DB0501210A435A61E2
:101BD0001A4B1B685A1C194B1A60164B1B68184A83
:101BE0009A429B415B42DBB2002B1FD0114B00227B
:101BF0001A60144B1B685A1C124B1A60114B1B685D
:101C00003B229A429B415B42DBB2002B0ED00B4B36
:101C10001A680D4B1A60094B00221A60094B00220A
:101C20001A600A4B1B685A1C084B1A60C046BD4616
:101C300080BDC04618000020000400500C000020A9
:101C4000E70300001000002008000020140000201E
:101C500080B500AFFFF73BFF124B5A6B114B0121D0
:101C60000A435A63A023DB051A68A023DB0502217F
:101C70008A431A60A023DB051A68A023DB05012133
:101C80000A431A60074B5A6B064B02210A435A63F8
:101C9000054B1A68044B05490A401A60C046BD4608
:101CA00080BDC0460010024000040050FFFFFCFF52
:101CB000F0B5EDB002AF0023D2225200BA18136083
:101CC000954B1800FFF7F2FEFFF7C2FFFFF748FF42
:101CD000924B180000F064FA914A924B11001800E0
:101CE000FEF728FC62B6904B1800FFF723FC8E4AE3
:101CF0008E4B11001800FEF7E3F98B4A8C4B110054
:101D0000180000F0FDFC874800230193EF230093A7
:101D1000EF2300220021FEF75BFD86498148002366
:101D20000193854B00930A236422FFF7CDFA7D4887
:101D3000814B0193DC230093142314221421FFF719
:101D40002FFA78487C4B0193DC230093DC23DC22C0
:101D50001421FFF725FA794A704B1100180000F0A2
:101D600039FB0023D0225200BA181360D02252004F
:101D7000BB181B68C72B11DC714BD42149008C4662
:101D8000BC4463441000BA18126852000021D152BA
:101D90003B181B6801333A181360E7E7694B1B686F
:101DA000D22464003A191268D31A5A1E9341DBB246
:101DB000002BF3D05D4B1800FEF758FA0300CE2538
:101DC0006D007A191360594B1800FEF789F903006A
:101DD000CC267600BA191360554B180000F0A2FC0F
:101DE0000300CA225200B9180B60514B180000F0D2
:101DF000B8FC0300C821490078180360524A474BD9
:101E00001100180000F0E6FA504B1A68434B11001D
:101E1000180000F08CFA4E4A404B1100180000F0F8
:101E2000D9FA4C4A3D4B1100180000F0D3FA7B1947
:101E30001A683A4B1100180000F079FA444A374BFF
:101E40001100180000F0C6FA434A344B1100180084
:101E500000F0C0FABB191A68304B1100180000F0EE
:101E600066FA3B4A2D4B1100180000F0B3FA3B4ACA
:101E70002A4B1100180000F0ADFACA225200BB181C
:101E80001A68264B1100180000F051FA304A234B13
:101E90001100180000F09EFA314A204B1100180082
:101EA00000F098FAC82149007B181A681B4B1100F2
:101EB000180000F03CFA264A184B1100180000F0F8
:101EC00089FA204B1B683A1913600123D022520073
:101ED000BA181360D02040003B181B68C72B41DCA8
:101EE0003B181B685A1E164BD42149008C46BC4433
:101EF0006344391809684900C95A114BD424640055
:101F0000A446BC4463445200D1523B181B680133C1
:101F10003A181360DEE7C04640420F003C01002043
:101F200018000020540200201C000020580200204D
:101F300078020020EC2C0008FFFF0000002D0008B4
:101F400058FEFFFF14000020182D00080800002094
:101F5000242D0008282D0008382D0008442D0008E5
:101F6000502D0008664B1B684B21180000F0E0FC68
:101F7000030099B2634BD4225200BA18D218C72377
:101F80005B00D152604800230193EF230093EF23BD
:101F900000220021FEF71CFC5C495B4800230193F2
:101FA0005B4B00930A232822FFF78EF9544B1B68E2
:101FB00099B2554800230193554B00930A23782288
:101FC000FFF718FA5349504800230193504B0093F0
:101FD00019232822FFF778F9CE235B00FB181B6832
:101FE00099B2494800230193494B00931923782261
:101FF000FFF700FA4849444800230193444B0093FB
:1020000028232822FFF760F9CC235B00FB181B680C
:1020100099B23D48002301933D4B00932823782239
:10202000FFF7E8F93D49384800230193384B009306
:1020300037232822FFF748F9CA235B00FB181B68E7
:1020400099B2314800230193314B00933723782212
:10205000FFF7D0F932492C48002301932C4B009311
:1020600046232822FFF730F9C8235B00FB181B68C2
:1020700099B2254800230193254B009346237822EB
:10208000FFF7B8F92048224B0193DC230093142377
:1020900014221421FFF784F81B481D4B0193DC2305
:1020A0000093DC23DC221421FFF77AF80023D022EE
:1020B0005200BA181360D0225200BB181B68C72BFD
:1020C00000DD6BE6BB181B689BB2153399B20D4B54
:1020D000D42040008446BC4463441400BA181268FB
:1020E0005200D35ADC22D31A9AB20E4B0648FEF79E
:1020F000D7FA3B191B6801333A191360DBE7C04676
:102100000800002058FEFFFF540200205C2D00084C
:10211000FFFF0000682D0008742D0008802D0008C6
:10212000882D00081FF8000080B582B000AF7860ED
:1021300039607B68012B17D13B680D4A934213D15C
:102140000C4B180000F05EFF0B4B180000F051FF25
:102150000A4B180000F044FF094B180000F05BFF29
:10216000084B180000F060FFC046BD4602B080BDBD
:10217000FFFF00001C0000203C0100205402002052
:10218000580200207802002080B500AF034B1900F0
:102190000120FFF7C9FFBD4680BDC046FFFF00001C
:1021A00080B584B000AF786096239B01FB603C4B08
:1021B0007A681A6072B67B689422002199500023D5
:1021C0007A68902153507A688C2153507B680022A2
:1021D0009A6000227B685A607B681A60314B5A6BA8
:1021E000304B01210A435A632E4BDA6B2D4B802171
:1021F00089020A43DA63A023DB051A68A023DB0502
:10220000A0210A431A60A023DB051A68A023DB057E
:1022100050218A431A60A023DB051A6AA023DB053C
:1022200021490A401A62A023DB051A6AA023DB05B4
:10223000882149010A431A621C4BBB60F968B868DF
:1022400000F076FB0300BB60164BDA6A154B1849A9
:102250000A40DA62174B00221A60164B00225A60BD
:10226000144B00229A60134BBA68DA60114B0122BA
:1022700052421A620F4B6C221A600E4B1A680D4BB9
:1022800001210A431A600C4B1A680B4B8021490547
:102290000A431A6062B6C046BD4604B080BDC0465F
:1022A0007C02002000100240FF00FFFF0090D003DE
:1022B000FFFFFDFF0044004000E100E080B582B078
:1022C00000AF78600A00FB1C1A700F4B1B680822D5
:1022D00013405A425341DBB2002B0AD00A4B1A6812
:1022E000094B08210A431A60074BFA1C12789A62BC
:1022F00006E07968FB1C1A787B68180000F082F809
:10230000C046BD4602B080BD0044004080B582B0EA
:1023100000AF78607B688C331A007B68110018006E
:1023200000F09AF803001800BD4602B080BD80B5E9
:1023300086B000AF786039600A237B6108217B1882
:102340000022DA723B68002B06DA7B182D221A7005
:102350003B685B423B6003E00823FB182B221A70AA
:102360007B69002B19DD3B680A21180000F0C6FBD1
:102370000B00DBB23033D9B20823FA187B69D318CB
:102380000A1C1A703B680A21180000F0D1FA0300F9
:102390003B607B69013B7B61E2E70823FA187B68BD
:1023A0001100180000F016F8C046BD4606B080BD0A
:1023B00080B582B000AF78600A00FB1C1A70FB1C6D
:1023C0001A787B6811001800FFF778FFC046BD46F9
:1023D00002B080BD80B582B000AF786039603B68E4
:1023E0001B78002B0AD03B681A787B681100180014
:1023F000FFF764FF3B6801333B60F0E7C046BD4632
:1024000002B080BD80B584B000AFF860B960FB1D3C
:102410001A70BB689A687F21002391425B41DBB24E
:10242000002B15D072B6BB689B685A1CBB689A60BB
:10243000FB1D1978BB681B68BA68D3180A1C1A738D
:10244000BB681B6801337F221A40BB681A6062B602
:10245000C046BD4604B080BD80B584B000AF786092
:1024600039600F217B1800221A703B689B685A1E46
:102470009341DBB2002B14D072B63B689B685A1EA6
:102480003B689A603B685A687B1839688A18127BE7
:102490001A703B685B6801337F221A403B685A60C0
:1024A00062B60F23FB181B781800BD4604B080BD30
:1024B00080B500AF234BDB69802213405A1E934145
:1024C000DBB2002B20D01F4B1A6A1E4B60210A433F
:1024D0001A621D4B1B689B685A1E9341DBB2002B8E
:1024E0000CD0194B1A68184B1B6819001000FFF725
:1024F000B3FF03001A00134B9A6205E0114B1A68F0
:10250000104B08218A431A600E4BDB6920221340CE
:102510005A1E9341DBB2002B11D00B4B18680A4BAB
:102520001B688C331900074B5B6ADBB21A00FFF79C
:1025300069FF044B1A6A034B20210A431A62C04602
:10254000BD4680BD004400407C02002080B582B0C2
:1025500000AF264B1A6C254B802149010A431A64AF
:10256000224B9A6B214BC021C9020A439A63A023D4
:10257000DB051A68A023DB051D490A401A60A02369
:10258000DB051A68A023DB05882109020A431A60CB
:10259000A023DB051A6AA023DB0516490A401A624C
:1025A000A023DB059A68A023DB05CC2109020A439E
:1025B0009A60114B9B683B600F4B104A1A600E4BA0
:1025C000E022D2005A6000237B607B681F2B08DC6E
:1025D000002000F015F803003B607B6801337B604E
:1025E000F3E7C046BD4602B080BDC04600100240C1
:1025F000FFBBFFFFFFFF0F0F00300140460300004D
:1026000080B586B000AF0200FB1D1A701A4B7B61CB
:102610001A4B3B611A4B9B688022134006D07B69A2
:102620005A1E7A61002B01D0012300E00023002B09
:1026300000D0EFE73B69FA1D12781A700E4B7B61F0
:102640000F4B9B688022134006D07B695A1E7A612B
:10265000002B01D0012300E00023002B00D0EFE786
:102660000F217B183A6912781A707B181B781800B2
:10267000BD4606B080BDC04640420F000C30014050
:102680000030014080B584B000AF0200BB1D1A804D
:10269000194BFB60194B9B688022134006D0FB68E6
:1026A0005A1EFA60002B01D0012300E00023002B0A
:1026B00000D0EFE7114BBA1D1288DA600E4BFB60B9
:1026C0000E4B9B688022134006D0FB685A1EFA60AE
:1026D000002B01D0012300E00023002B00D0EFE706
:1026E000064BDA680A217B181A807B181B881800B1
:1026F000BD4604B080BDC04640420F0000300140DE
:1027000080B582B000AF786039607B683A681A6043
:102710007B6803228021180000F05DF8C046BD46AA
:1027200002B080BDB0B584B000AF78600B243A1918
:102730007B688C21180000F033F80A257A197B6831
:102740008D21180000F02CF83B191B781A007B191A
:102750001B781B02D318FB60FB681800BD4604B051
:10276000B0BDB0B584B000AF78600B243A197B6877
:102770008E21180000F014F80A257A197B688F2141
:10278000180000F00DF83B191B781A007B191B7814
:102790001B02D318FB60FB681800BD4604B0B0BD37
:1027A00090B589B002AFF8607A600B243B190A1C1F
:1027B0001A70FB68186879683B191A78012300932E
:1027C0000B003921FEF761FF03007B617B69180074
:1027D000BD4607B090BD80B586B002AF78600800F6
:1027E0001100FB1C021C1A70BB1C0A1C1A700C2165
:1027F0007B18BA1C12781A707B6818687918FB1C51
:102800001A78012300930B003921FEF7F5FE03002F
:10281000BB60BB681800BD4604B080BD0022430801
:102820008B4274D303098B425FD3030A8B4244D398
:10283000030B8B4228D3030C8B420DD3FF220902DA
:1028400012BA030C8B4202D31212090265D0030B99
:102850008B4219D300E0090AC30B8B4201D3CB038F
:10286000C01A5241830B8B4201D38B03C01A5241D1
:10287000430B8B4201D34B03C01A5241030B8B42D3
:1028800001D30B03C01A5241C30A8B4201D3CB02BE
:10289000C01A5241830A8B4201D38B02C01A5241A3
:1028A000430A8B4201D34B02C01A5241030A8B42A6
:1028B00001D30B02C01A5241CDD2C3098B4201D3BE
:1028C000CB01C01A524183098B4201D38B01C01A3C
:1028D000524143098B4201D34B01C01A52410309B3
:1028E0008B4201D30B01C01A5241C3088B4201D362
:1028F000CB00C01A524183088B4201D38B00C01A0F
:10290000524143088B4201D34B00C01A5241411A35
:1029100000D20146524110467047FFE701B5002042
:1029200000F0F0F802BDC0460029F7D076E7704706
:1029300003460B437FD4002243088B4274D3030920
:102940008B425FD3030A8B4244D3030B8B4228D3C1
:10295000030C8B420DD3FF22090212BA030C8B42E7
:1029600002D31212090265D0030B8B4219D300E087
:10297000090AC30B8B4201D3CB03C01A5241830B0C
:102980008B4201D38B03C01A5241430B8B4201D3BC
:102990004B03C01A5241030B8B4201D30B03C01AE5
:1029A0005241C30A8B4201D3CB02C01A5241830A5F
:1029B0008B4201D38B02C01A5241430A8B4201D38E
:1029C0004B02C01A5241030A8B4201D30B02C01AB8
:1029D0005241CDD2C3098B4201D3CB01C01A52411F
:1029E00083098B4201D38B01C01A524143098B42A8
:1029F00001D34B01C01A524103098B4201D30B0191
:102A0000C01A5241C3088B4201D3CB00C01A5241B5
:102A100083088B4201D38B00C01A524143088B427A
:102A200001D34B00C01A5241411A00D20146524113
:102A3000104670475DE0CA0F00D04942031000D332
:102A40004042534000229C4603098B422DD3030A87
:102A50008B4212D3FC22890112BA030A8B420CD397
:102A6000890192118B4208D3890192118B4204D3C0
:102A700089013AD0921100E08909C3098B4201D340
:102A8000CB01C01A524183098B4201D38B01C01A7A
:102A9000524143098B4201D34B01C01A52410309F1
:102AA0008B4201D30B01C01A5241C3088B4201D3A0
:102AB000CB00C01A524183088B4201D38B00C01A4D
:102AC0005241D9D243088B4201D34B00C01A524124
:102AD000411A00D20146634652415B10104601D3B1
:102AE0004042002B00D54942704763465B1000D33B
:102AF000404201B5002000F005F802BD0029F8D0E1
:102B000016E770477047C0468921000800000000A2
:102B10000000005F00000007000700147F147F140E
:102B2000242A7F2A12231308646236495522500052
:102B300005030000001C2241000041221C00082A5D
:102B40001C2A0808083E0808005030000008080841
:102B50000808006060000020100804023E5149454A
:102B60003E00427F400042615149462141454B3180
:102B70001814127F1027454545393C4A4949300110
:102B8000710905033649494936064949291E003667
:102B900036000000563600000008142241141414B8
:102BA00014144122140800020151090632497941E6
:102BB0003E7E1111117E7F494949363E41414122F5
:102BC0007F4141221C7F494949417F090901013E5A
:102BD000414151327F0808087F00417F4100204079
:102BE000413F017F081422417F404040407F020462
:102BF000027F7F0408107F3E4141413E7F09090961
:102C0000063E4151215E7F0919294646494949310D
:102C100001017F01013F4040403F1F2040201F7FB6
:102C20002018207F6314081463030478040361519F
:102C300049454300007F4141020408102041417F83
:102C40000000040201020440404040400001020430
:102C50000020545454787F48444438384444442035
:102C6000384444487F3854545418087E09010208F7
:102C70001454543C7F0804047800447D40002040F4
:102C8000443D00007F10284400417F40007C041830
:102C900004787C0804047838444444387C141414C0
:102CA00008081414187C7C08040408485454542060
:102CB000043F4440203C4040207C1C2040201C3CE1
:102CC0004030403C44281028440C5050503C446450
:102CD000544C44000836410000007F00000041369B
:102CE000080008082A1C08081C2A0808456E76698E
:102CF000726F6E6D656E742073656E736F72000017
:102D0000456E7669726F6E6D656E742073656E7355
:102D10006F720D0A000000004C6F772054696D65DA
:102D20003A2000000D0A000054656D7020782031B3
:102D300030303A2000000000507265737375726580
:102D40003A2000004C69676874303A2000000000A7
:102D50004C69676874313A20000000004475737450
:102D60002073656E736F720054656D70207820312A
:102D7000303000005072657373757265000000009A
:102D80004C696768742030004C69676874203100B2
:102D90004743433A2028474E5520546F6F6C7320A9
:102DA000666F722041726D20456D62656464656472
:102DB0002050726F636573736F727320382D3230D9
:102DC00031382D71342D6D616A6F722920382E32A1
:102DD0002E31203230313831323133202872656C57
:102DE0006561736529205B6763632D382D627261AD
:102DF0006E6368207265766973696F6E203236374C
:102E00003037345D00412B0000006165616269006C
:102E100001210000000536532D4D00060C074D0919
:102E2000011204140115011703180119011A011EDA
:102E300006412B000000616561626900012100000C
:102E4000000536532D4D00060C074D0901120414E0
:102E50000115011703180119011A011E06412B0063
:102E600000006165616269000121000000053653C0
:102E70002D4D00060C074D09011204140115011710
:102E800003180119011A011E06412B00000061659B
:102E90006162690001210000000536532D4D0006D6
:102EA0000C074D090112041401150117031801192B
:102EB000011A011E06412B00000061656162690074
:102EC00001210000000536532D4D00060C074D0969
:102ED000011204140115011703180119011A011E2A
:102EE00006412B000000616561626900012100005C
:102EF000000536532D4D00060C074D090112041430
:102F00000115011703180119011A011E06412B00B2
:102F1000000061656162690001210000000536530F
:102F20002D4D00060C074D0901120414011501175F
:102F300003180119011A011E06412B0000006165EA
:102F40006162690001210000000536532D4D000625
:102F50000C074D090112041401150117031801197A
:102F6000011A011E06411D000000616561626900D1
:102F700001130000000536532D4D00060C074D09C6
:102F8000011901411D0000006165616269000113C2
:102F90000000000536532D4D00060C074D090119A0
:102FA00001411D00000061656162690001130000BC
:0F2FB000000536532D4D00060C074D0901190180
:102FC00080B582B000AF786039603B68002B02DAD0
:102FD0003B685B4200E03B681800BD4602B080BD24
:102FE00080B582B000AF78607B681800BD4602B043
:022FF00080BDA2
:102FF20080B582B000AF78607B681800BD4602B031
:0230020080BD8F
:1030040080B582B000AF78607B681800BD4602B01E
:0230140080BD7D
:1030160080B582B000AF78607B681800BD4602B00C
:0230260080BD6B
:1030280080B582B000AF78607B681800BD4602B0FA
:0230380080BD59
:0400000508000000EF
:00000001FF
