:020000040800F2
:100000000010002039010008C5010008C5010008E2
:10001000C5010008C5010008C5010008C5010008A8
:10002000C5010008C5010008C5010008C501000898
:10003000C5010008C5010008C5010008C501000888
:10004000C5010008C5010008C5010008C501000878
:10005000C5010008C5010008C5010008C501000868
:10006000C5010008C5010008C5010008C501000858
:10007000C5010008C5010008C5010008C501000848
:10008000C5010008C5010008C5010008C501000838
:10009000C5010008C5010008C5010008C501000828
:1000A000C5010008C5010008C5010008C501000818
:1000B000C5010008C5010008C5010008C501000808
:1000C00080B500AFC046BD4680BD80B582B000AFF0
:1000D000154A164BD31A9B103B6000237B607A684D
:1000E0003B689A4208D2114B7A689200D3589847DD
:1000F0007B6801337B60F2E70D4A0E4BD31A9B10ED
:100100003B6000237B607A683B689A4208D2094BC7
:100110007A689200D35898477B6801337B60F2E796
:10012000C046BD4602B080BD580200085802000813
:10013000580200085802000880B584B000AFFFF7ED
:10014000BFFF1B4BFB601B4BBB601B4A194BD31AF9
:100150007B607B685A1E7A605A1E9341DBB2002B8B
:1001600009D0FB685A1CFA601978BB685A1CBA603F
:100170000A1C1A70EDE7114BBB60114A0F4BD31AE2
:100180007B607B685A1E7A605A1E9341DBB2002B5B
:1001900005D0BB685A1CBA6000221A70F1E7FFF75D
:1001A00094FF00F024F8C046BD4604B080BDC046B0
:1001B00025030008000000200000002000000020AF
:1001C0000000002080B500AFFEE7C04680B582B0D9
:1001D00000AF78607B685A1E7A605A1E9341DBB28A
:1001E000002B00D0F6E7C046BD4602B080BD80B50A
:1001F00000AF174B5A6B164B01210A435A63A023D9
:10020000DB051A68A023DB0502218A431A60A023BC
:10021000DB051A68A023DB0501210A431A60A0232D
:10022000DB055A69A023DB0501210A435A61094B0A
:100230001800FFF7CBFFA023DB055A69A023DB05DD
:1002400001218A435A61034B1800FFF7BFFFE6E71D
:1002500000100240A08601004743433A2028474E41
:100260005520546F6F6C7320666F722041726D2041
:10027000456D6265646465642050726F6365737375
:100280006F727320382D323031382D71342D6D61FD
:100290006A6F722920382E322E31203230313831B7
:1002A000323133202872656C6561736529205B6784
:1002B00063632D382D6272616E63682072657669A2
:1002C00073696F6E203236373037345D00412B0052
:1002D000000061656162690001210000000536537C
:1002E0002D4D00060C074D090112041401150117CC
:1002F00003180119011A011E06412B000000616557
:100300006162690001210000000536532D4D000691
:100310000C074D09011204140115011703180119E6
:05032000011A011E0698
:0400000508000000EF
:00000001FF
