:020000040800F2
:100000000010002039010008C5010008C5010008E2
:10001000C5010008C5010008C5010008C5010008A8
:10002000C5010008C5010008C5010008C501000898
:10003000C5010008C5010008C5010008AD0200089F
:10004000C5010008C5010008C5010008C501000878
:10005000C5010008C5010008C5010008C501000868
:10006000C5010008C5010008C5010008C501000858
:10007000C5010008C5010008C5010008C501000848
:10008000C5010008C5010008C5010008C501000838
:10009000C5010008C5010008C5010008C501000828
:1000A000C5010008C5010008C5010008C501000818
:1000B000C5010008C5010008C5010008C501000808
:1000C00080B500AFC046BD4680BD80B582B000AFF0
:1000D000154A164BD31A9B103B6000237B607A684D
:1000E0003B689A4208D2114B7A689200D3589847DD
:1000F0007B6801337B60F2E70D4A0E4BD31A9B10ED
:100100003B6000237B607A683B689A4208D2094BC7
:100110007A689200D35898477B6801337B60F2E796
:10012000C046BD4602B080BD440300084403000839
:10013000440300084403000880B584B000AFFFF713
:10014000BFFF1B4BFB601B4BBB601B4A194BD31AF9
:100150007B607B685A1E7A605A1E9341DBB2002B8B
:1001600009D0FB685A1CFA601978BB685A1CBA603F
:100170000A1C1A70EDE7114BBB60114A0F4BD31AE2
:100180007B607B685A1E7A605A1E9341DBB2002B5B
:1001900005D0BB685A1CBA6000221A70F1E7FFF75D
:1001A00094FF00F0C1F8C046BD4604B080BDC04613
:1001B00011040008000000200000002000000020C2
:1001C0000400002080B500AFFEE7C04680B582B0D5
:1001D00000AF78607B685A1E7A605A1E9341DBB28A
:1001E000002B00D0F6E7C046BD4602B080BD80B50A
:1001F00000AF1F4B1A681E4B1E490A401A601E4B67
:100200001A681D4B02210A431A60194BC02292053D
:10021000DA60174BDA68164B18490A43DA60144B58
:10022000DA68134B02210A43DA60114BDA68104B8B
:10023000802149020A43DA600D4B1A680C4B802179
:1002400049040A431A600A4B1A6880239B0413402E
:100250005A425341DBB2002B00D0F4E7044B9A68BA
:10026000034B02210A439A60C046BD4680BDC0468A
:1002700000100240FFFFFFFE0020024010100000AF
:1002800080B500AF074B1A68064B07210A431A6076
:10029000044B054A5A60034B05229A6062B6C04679
:1002A000BD4680BD10E000E0FFF9000080B500AF62
:1002B0000B4B1B685A1C0A4B1A60094B1B68094AF6
:1002C00093420AD9064B00221A60A023DB055A6923
:1002D000A023DB0501214A405A61C046BD4680BDCE
:1002E00000000020E703000080B500AFFFF77FFFAC
:1002F0000C4B5A6B0B4B01210A435A63A023DB05BD
:100300001A68A023DB0502218A431A60A023DB05BB
:100310001A68A023DB0501210A431A60C046BD46C6
:1003200080BDC0460010024080B500AF044B1800ED
:10033000FFF74CFFFFF7D8FFFFF7A2FFFEE7C0462D
:1003400040420F004743433A2028474E5520546F00
:100350006F6C7320666F722041726D20456D62650F
:10036000646465642050726F636573736F72732089
:10037000382D323031382D71342D6D616A6F72290C
:1003800020382E322E312032303138313231332084
:100390002872656C6561736529205B6763632D381E
:1003A0002D6272616E6368207265766973696F6E23
:1003B000203236373037345D00412B000000616554
:1003C0006162690001210000000536532D4D0006D1
:1003D0000C074D0901120414011501170318011926
:1003E000011A011E06412B0000006165616269006F
:1003F00001210000000536532D4D00060C074D0964
:10040000011204140115011703180119011A011E24
:0104100006E5
:0400000508000000EF
:00000001FF
